{
  "contractName": "Verification",
  "abi": [
    {
      "inputs": [],
      "stateMutability": "nonpayable",
      "type": "constructor"
    },
    {
      "inputs": [],
      "name": "cra",
      "outputs": [
        {
          "internalType": "address",
          "name": "",
          "type": "address"
        }
      ],
      "stateMutability": "view",
      "type": "function",
      "constant": true
    },
    {
      "inputs": [
        {
          "internalType": "address",
          "name": "",
          "type": "address"
        }
      ],
      "name": "users",
      "outputs": [
        {
          "internalType": "bool",
          "name": "isVerified",
          "type": "bool"
        },
        {
          "internalType": "string",
          "name": "userInfo",
          "type": "string"
        }
      ],
      "stateMutability": "view",
      "type": "function",
      "constant": true
    },
    {
      "inputs": [
        {
          "internalType": "address",
          "name": "target",
          "type": "address"
        }
      ],
      "name": "getIsVerified",
      "outputs": [
        {
          "internalType": "bool",
          "name": "",
          "type": "bool"
        }
      ],
      "stateMutability": "view",
      "type": "function",
      "constant": true
    },
    {
      "inputs": [
        {
          "internalType": "address",
          "name": "target",
          "type": "address"
        }
      ],
      "name": "getUserInfo",
      "outputs": [
        {
          "internalType": "string",
          "name": "",
          "type": "string"
        }
      ],
      "stateMutability": "view",
      "type": "function",
      "constant": true
    },
    {
      "inputs": [
        {
          "internalType": "address",
          "name": "target",
          "type": "address"
        }
      ],
      "name": "verify",
      "outputs": [],
      "stateMutability": "nonpayable",
      "type": "function"
    },
    {
      "inputs": [
        {
          "internalType": "address",
          "name": "target",
          "type": "address"
        }
      ],
      "name": "unverify",
      "outputs": [],
      "stateMutability": "nonpayable",
      "type": "function"
    }
  ],
  "bytecode": "0x608060405234801561001057600080fd5b50336000806101000a81548173ffffffffffffffffffffffffffffffffffffffff021916908373ffffffffffffffffffffffffffffffffffffffff16021790555060018060003373ffffffffffffffffffffffffffffffffffffffff1673ffffffffffffffffffffffffffffffffffffffff16815260200190815260200160002060000160006101000a81548160ff0219169083151502179055506040518060400160405280600381526020017f6372610000000000000000000000000000000000000000000000000000000000815250600160003373ffffffffffffffffffffffffffffffffffffffff1673ffffffffffffffffffffffffffffffffffffffff168152602001908152602001600020600101908051906020019061013692919061013c565b50610240565b8280546101489061020e565b90600052602060002090601f01602090048101928261016a57600085556101b1565b82601f1061018357805160ff19168380011785556101b1565b828001600101855582156101b1579182015b828111156101b0578251825591602001919060010190610195565b5b5090506101be91906101c2565b5090565b5b808211156101db5760008160009055506001016101c3565b5090565b7f4e487b7100000000000000000000000000000000000000000000000000000000600052602260045260246000fd5b6000600282049050600182168061022657607f821691505b6020821081141561023a576102396101df565b5b50919050565b610abb8061024f6000396000f3fe608060405234801561001057600080fd5b50600436106100625760003560e01c80634b953097146100675780636386c1c71461009757806363a9c3d7146100c7578063a87430ba146100e3578063e3f8adcd14610114578063e58f9ce614610130575b600080fd5b610081600480360381019061007c91906106b0565b61014e565b60405161008e91906106f8565b60405180910390f35b6100b160048036038101906100ac91906106b0565b6101a7565b6040516100be91906107ac565b60405180910390f35b6100e160048036038101906100dc91906106b0565b610399565b005b6100fd60048036038101906100f891906106b0565b610484565b60405161010b9291906107ce565b60405180910390f35b61012e600480360381019061012991906106b0565b61053d565b005b610138610629565b604051610145919061080d565b60405180910390f35b6000600160008373ffffffffffffffffffffffffffffffffffffffff1673ffffffffffffffffffffffffffffffffffffffff16815260200190815260200160002060000160009054906101000a900460ff169050919050565b606060008054906101000a900473ffffffffffffffffffffffffffffffffffffffff1673ffffffffffffffffffffffffffffffffffffffff163373ffffffffffffffffffffffffffffffffffffffff1614610237576040517f08c379a000000000000000000000000000000000000000000000000000000000815260040161022e9061089a565b60405180910390fd5b600160008373ffffffffffffffffffffffffffffffffffffffff1673ffffffffffffffffffffffffffffffffffffffff16815260200190815260200160002060000160009054906101000a900460ff16156102c7576040517f08c379a00000000000000000000000000000000000000000000000000000000081526004016102be9061092c565b60405180910390fd5b600160008373ffffffffffffffffffffffffffffffffffffffff1673ffffffffffffffffffffffffffffffffffffffff16815260200190815260200160002060010180546103149061097b565b80601f01602080910402602001604051908101604052809291908181526020018280546103409061097b565b801561038d5780601f106103625761010080835404028352916020019161038d565b820191906000526020600020905b81548152906001019060200180831161037057829003601f168201915b50505050509050919050565b60008054906101000a900473ffffffffffffffffffffffffffffffffffffffff1673ffffffffffffffffffffffffffffffffffffffff163373ffffffffffffffffffffffffffffffffffffffff1614610427576040517f08c379a000000000000000000000000000000000000000000000000000000000815260040161041e906109f9565b60405180910390fd5b60018060008373ffffffffffffffffffffffffffffffffffffffff1673ffffffffffffffffffffffffffffffffffffffff16815260200190815260200160002060000160006101000a81548160ff02191690831515021790555050565b60016020528060005260406000206000915090508060000160009054906101000a900460ff16908060010180546104ba9061097b565b80601f01602080910402602001604051908101604052809291908181526020018280546104e69061097b565b80156105335780601f1061050857610100808354040283529160200191610533565b820191906000526020600020905b81548152906001019060200180831161051657829003601f168201915b5050505050905082565b60008054906101000a900473ffffffffffffffffffffffffffffffffffffffff1673ffffffffffffffffffffffffffffffffffffffff163373ffffffffffffffffffffffffffffffffffffffff16146105cb576040517f08c379a00000000000000000000000000000000000000000000000000000000081526004016105c290610a65565b60405180910390fd5b6000600160008373ffffffffffffffffffffffffffffffffffffffff1673ffffffffffffffffffffffffffffffffffffffff16815260200190815260200160002060000160006101000a81548160ff02191690831515021790555050565b60008054906101000a900473ffffffffffffffffffffffffffffffffffffffff1681565b600080fd5b600073ffffffffffffffffffffffffffffffffffffffff82169050919050565b600061067d82610652565b9050919050565b61068d81610672565b811461069857600080fd5b50565b6000813590506106aa81610684565b92915050565b6000602082840312156106c6576106c561064d565b5b60006106d48482850161069b565b91505092915050565b60008115159050919050565b6106f2816106dd565b82525050565b600060208201905061070d60008301846106e9565b92915050565b600081519050919050565b600082825260208201905092915050565b60005b8381101561074d578082015181840152602081019050610732565b8381111561075c576000848401525b50505050565b6000601f19601f8301169050919050565b600061077e82610713565b610788818561071e565b935061079881856020860161072f565b6107a181610762565b840191505092915050565b600060208201905081810360008301526107c68184610773565b905092915050565b60006040820190506107e360008301856106e9565b81810360208301526107f58184610773565b90509392505050565b61080781610672565b82525050565b600060208201905061082260008301846107fe565b92915050565b7f4f6e6c79206372612068617320726967687420746f2067657455736572496e6660008201527f6f00000000000000000000000000000000000000000000000000000000000000602082015250565b600061088460218361071e565b915061088f82610828565b604082019050919050565b600060208201905081810360008301526108b381610877565b9050919050565b7f43616e206f6e6c792073656520696e666f206f6620756e76657269666965642060008201527f7573657273000000000000000000000000000000000000000000000000000000602082015250565b600061091660258361071e565b9150610921826108ba565b604082019050919050565b6000602082019050818103600083015261094581610909565b9050919050565b7f4e487b7100000000000000000000000000000000000000000000000000000000600052602260045260246000fd5b6000600282049050600182168061099357607f821691505b602082108114156109a7576109a661094c565b5b50919050565b7f4f6e6c79206372612068617320726967687420746f2076657269667900000000600082015250565b60006109e3601c8361071e565b91506109ee826109ad565b602082019050919050565b60006020820190508181036000830152610a12816109d6565b9050919050565b7f4f6e6c79206372612068617320726967687420746f20756e7665726966790000600082015250565b6000610a4f601e8361071e565b9150610a5a82610a19565b602082019050919050565b60006020820190508181036000830152610a7e81610a42565b905091905056fea2646970667358221220abe1dbb428f55d7d8cafb4b42b325f9228f260121990ef52c47ecb3bd7a0c0da64736f6c634300080a0033",
  "immutableReferences": {},
  "source": "pragma solidity >=0.4.22 <0.9.0;\r\n\r\ncontract Verification {\r\n    address public cra;\r\n    \r\n    struct User {\r\n      bool isVerified;\r\n      string userInfo;\r\n    }\r\n    mapping(address => User) public users;\r\n\r\n  constructor() {\r\n    cra = msg.sender;\r\n\r\n    users[msg.sender].isVerified = true;\r\n    users[msg.sender].userInfo = \"cra\";\r\n  }\r\n\r\n  // Retrieving the target's verification status\r\n  function getIsVerified(address target) public view returns (bool) {\r\n    return users[target].isVerified;\r\n  }\r\n\r\n  // Retrieving the target's userInfo\r\n  function getUserInfo(address target) public view returns (string memory) {\r\n    require(\r\n      msg.sender == cra,\r\n      //getIsVerified(target) == false,\r\n      \"Only cra has right to getUserInfo\"\r\n    );\r\n    require(\r\n      !users[target].isVerified,\r\n      \"Can only see info of unverified users\"\r\n    );\r\n    return users[target].userInfo;\r\n  }\r\n\r\n  // Unverify target\r\n  function verify(address target) public {\r\n    require(\r\n      msg.sender == cra,\r\n      \"Only cra has right to verify\"\r\n    );\r\n    users[target].isVerified = true;\r\n  }\r\n\r\n  // Unverify target\r\n  function unverify(address target) public {\r\n    require(\r\n      msg.sender == cra,\r\n      \"Only cra has right to unverify\"\r\n    );\r\n    users[target].isVerified = false;\r\n  }\r\n\r\n}\r\n",
  "sourcePath": "C:\\Users\\yfz87\\Desktop\\hackwestern2023\\contracts\\Verification.sol",
  "compiler": {
    "name": "solc",
    "version": "0.8.10+commit.fc410830.Emscripten.clang"
  },
  "schemaVersion": "3.4.16",
  "updatedAt": "2023-11-26T03:30:48.743Z",
  "networkType": "ethereum",
  "devdoc": {
    "kind": "dev",
    "methods": {},
    "version": 1
  },
  "userdoc": {
    "kind": "user",
    "methods": {},
    "version": 1
  }
}