{
  "contractName": "Verification",
  "abi": [
    {
      "inputs": [],
      "stateMutability": "nonpayable",
      "type": "constructor"
    },
    {
      "inputs": [],
      "name": "cra",
      "outputs": [
        {
          "internalType": "address",
          "name": "",
          "type": "address"
        }
      ],
      "stateMutability": "view",
      "type": "function"
    },
    {
      "inputs": [
        {
          "internalType": "address",
          "name": "",
          "type": "address"
        }
      ],
      "name": "users",
      "outputs": [
        {
          "internalType": "bool",
          "name": "isVerified",
          "type": "bool"
        },
        {
          "internalType": "string",
          "name": "userInfo",
          "type": "string"
        }
      ],
      "stateMutability": "view",
      "type": "function"
    },
    {
      "inputs": [
        {
          "internalType": "address",
          "name": "target",
          "type": "address"
        }
      ],
      "name": "getIsVerified",
      "outputs": [
        {
          "internalType": "bool",
          "name": "",
          "type": "bool"
        }
      ],
      "stateMutability": "view",
      "type": "function"
    },
    {
      "inputs": [
        {
          "internalType": "address",
          "name": "target",
          "type": "address"
        }
      ],
      "name": "getUserInfo",
      "outputs": [
        {
          "internalType": "string",
          "name": "",
          "type": "string"
        }
      ],
      "stateMutability": "view",
      "type": "function"
    },
    {
      "inputs": [
        {
          "internalType": "address",
          "name": "target",
          "type": "address"
        }
      ],
      "name": "verify",
      "outputs": [],
      "stateMutability": "nonpayable",
      "type": "function"
    },
    {
      "inputs": [
        {
          "internalType": "address",
          "name": "target",
          "type": "address"
        }
      ],
      "name": "unverify",
      "outputs": [],
      "stateMutability": "nonpayable",
      "type": "function"
    },
    {
      "inputs": [
        {
          "internalType": "address",
          "name": "target",
          "type": "address"
        },
        {
          "internalType": "string",
          "name": "personalInfo",
          "type": "string"
        }
      ],
      "name": "setData",
      "outputs": [],
      "stateMutability": "nonpayable",
      "type": "function"
    },
    {
      "inputs": [
        {
          "internalType": "string",
          "name": "personalInfo",
          "type": "string"
        }
      ],
      "name": "testData",
      "outputs": [],
      "stateMutability": "nonpayable",
      "type": "function"
    }
  ],
  "bytecode": "0x60806040523480156200001157600080fd5b50336000806101000a81548173ffffffffffffffffffffffffffffffffffffffff021916908373ffffffffffffffffffffffffffffffffffffffff16021790555060018060003373ffffffffffffffffffffffffffffffffffffffff1673ffffffffffffffffffffffffffffffffffffffff16815260200190815260200160002060000160006101000a81548160ff0219169083151502179055506040518060400160405280600381526020017f6372610000000000000000000000000000000000000000000000000000000000815250600160003373ffffffffffffffffffffffffffffffffffffffff1673ffffffffffffffffffffffffffffffffffffffff16815260200190815260200160002060010190805190602001906200013992919062000140565b5062000255565b8280546200014e906200021f565b90600052602060002090601f016020900481019282620001725760008555620001be565b82601f106200018d57805160ff1916838001178555620001be565b82800160010185558215620001be579182015b82811115620001bd578251825591602001919060010190620001a0565b5b509050620001cd9190620001d1565b5090565b5b80821115620001ec576000816000905550600101620001d2565b5090565b7f4e487b7100000000000000000000000000000000000000000000000000000000600052602260045260246000fd5b600060028204905060018216806200023857607f821691505b602082108114156200024f576200024e620001f0565b5b50919050565b610e7a80620002656000396000f3fe608060405234801561001057600080fd5b50600436106100885760003560e01c806363a9c3d71161005b57806363a9c3d714610125578063a87430ba14610141578063e3f8adcd14610172578063e58f9ce61461018e57610088565b80630b51989a1461008d5780634b953097146100a9578063586b9047146100d95780636386c1c7146100f5575b600080fd5b6100a760048036038101906100a29190610956565b6101ac565b005b6100c360048036038101906100be91906109b6565b610291565b6040516100d091906109fe565b60405180910390f35b6100f360048036038101906100ee9190610a19565b6102ea565b005b61010f600480360381019061010a91906109b6565b610340565b60405161011c9190610aff565b60405180910390f35b61013f600480360381019061013a91906109b6565b610532565b005b61015b600480360381019061015691906109b6565b61061d565b604051610169929190610b21565b60405180910390f35b61018c600480360381019061018791906109b6565b6106d6565b005b6101966107c2565b6040516101a39190610b60565b60405180910390f35b60008054906101000a900473ffffffffffffffffffffffffffffffffffffffff1673ffffffffffffffffffffffffffffffffffffffff163373ffffffffffffffffffffffffffffffffffffffff161461023a576040517f08c379a000000000000000000000000000000000000000000000000000000000815260040161023190610bc7565b60405180910390fd5b8181600160008673ffffffffffffffffffffffffffffffffffffffff1673ffffffffffffffffffffffffffffffffffffffff168152602001908152602001600020600101919061028b9291906107e6565b50505050565b6000600160008373ffffffffffffffffffffffffffffffffffffffff1673ffffffffffffffffffffffffffffffffffffffff16815260200190815260200160002060000160009054906101000a900460ff169050919050565b8181600160003373ffffffffffffffffffffffffffffffffffffffff1673ffffffffffffffffffffffffffffffffffffffff168152602001908152602001600020600101919061033b9291906107e6565b505050565b606060008054906101000a900473ffffffffffffffffffffffffffffffffffffffff1673ffffffffffffffffffffffffffffffffffffffff163373ffffffffffffffffffffffffffffffffffffffff16146103d0576040517f08c379a00000000000000000000000000000000000000000000000000000000081526004016103c790610c59565b60405180910390fd5b600160008373ffffffffffffffffffffffffffffffffffffffff1673ffffffffffffffffffffffffffffffffffffffff16815260200190815260200160002060000160009054906101000a900460ff1615610460576040517f08c379a000000000000000000000000000000000000000000000000000000000815260040161045790610ceb565b60405180910390fd5b600160008373ffffffffffffffffffffffffffffffffffffffff1673ffffffffffffffffffffffffffffffffffffffff16815260200190815260200160002060010180546104ad90610d3a565b80601f01602080910402602001604051908101604052809291908181526020018280546104d990610d3a565b80156105265780601f106104fb57610100808354040283529160200191610526565b820191906000526020600020905b81548152906001019060200180831161050957829003601f168201915b50505050509050919050565b60008054906101000a900473ffffffffffffffffffffffffffffffffffffffff1673ffffffffffffffffffffffffffffffffffffffff163373ffffffffffffffffffffffffffffffffffffffff16146105c0576040517f08c379a00000000000000000000000000000000000000000000000000000000081526004016105b790610db8565b60405180910390fd5b60018060008373ffffffffffffffffffffffffffffffffffffffff1673ffffffffffffffffffffffffffffffffffffffff16815260200190815260200160002060000160006101000a81548160ff02191690831515021790555050565b60016020528060005260406000206000915090508060000160009054906101000a900460ff169080600101805461065390610d3a565b80601f016020809104026020016040519081016040528092919081815260200182805461067f90610d3a565b80156106cc5780601f106106a1576101008083540402835291602001916106cc565b820191906000526020600020905b8154815290600101906020018083116106af57829003601f168201915b5050505050905082565b60008054906101000a900473ffffffffffffffffffffffffffffffffffffffff1673ffffffffffffffffffffffffffffffffffffffff163373ffffffffffffffffffffffffffffffffffffffff1614610764576040517f08c379a000000000000000000000000000000000000000000000000000000000815260040161075b90610e24565b60405180910390fd5b6000600160008373ffffffffffffffffffffffffffffffffffffffff1673ffffffffffffffffffffffffffffffffffffffff16815260200190815260200160002060000160006101000a81548160ff02191690831515021790555050565b60008054906101000a900473ffffffffffffffffffffffffffffffffffffffff1681565b8280546107f290610d3a565b90600052602060002090601f016020900481019282610814576000855561085b565b82601f1061082d57803560ff191683800117855561085b565b8280016001018555821561085b579182015b8281111561085a57823582559160200191906001019061083f565b5b509050610868919061086c565b5090565b5b8082111561088557600081600090555060010161086d565b5090565b600080fd5b600080fd5b600073ffffffffffffffffffffffffffffffffffffffff82169050919050565b60006108be82610893565b9050919050565b6108ce816108b3565b81146108d957600080fd5b50565b6000813590506108eb816108c5565b92915050565b600080fd5b600080fd5b600080fd5b60008083601f840112610916576109156108f1565b5b8235905067ffffffffffffffff811115610933576109326108f6565b5b60208301915083600182028301111561094f5761094e6108fb565b5b9250929050565b60008060006040848603121561096f5761096e610889565b5b600061097d868287016108dc565b935050602084013567ffffffffffffffff81111561099e5761099d61088e565b5b6109aa86828701610900565b92509250509250925092565b6000602082840312156109cc576109cb610889565b5b60006109da848285016108dc565b91505092915050565b60008115159050919050565b6109f8816109e3565b82525050565b6000602082019050610a1360008301846109ef565b92915050565b60008060208385031215610a3057610a2f610889565b5b600083013567ffffffffffffffff811115610a4e57610a4d61088e565b5b610a5a85828601610900565b92509250509250929050565b600081519050919050565b600082825260208201905092915050565b60005b83811015610aa0578082015181840152602081019050610a85565b83811115610aaf576000848401525b50505050565b6000601f19601f8301169050919050565b6000610ad182610a66565b610adb8185610a71565b9350610aeb818560208601610a82565b610af481610ab5565b840191505092915050565b60006020820190508181036000830152610b198184610ac6565b905092915050565b6000604082019050610b3660008301856109ef565b8181036020830152610b488184610ac6565b90509392505050565b610b5a816108b3565b82525050565b6000602082019050610b756000830184610b51565b92915050565b7f4f6e6c79206372612068617320726967687420746f2073657420646174610000600082015250565b6000610bb1601e83610a71565b9150610bbc82610b7b565b602082019050919050565b60006020820190508181036000830152610be081610ba4565b9050919050565b7f4f6e6c79206372612068617320726967687420746f2067657455736572496e6660008201527f6f00000000000000000000000000000000000000000000000000000000000000602082015250565b6000610c43602183610a71565b9150610c4e82610be7565b604082019050919050565b60006020820190508181036000830152610c7281610c36565b9050919050565b7f43616e206f6e6c792073656520696e666f206f6620756e76657269666965642060008201527f7573657273000000000000000000000000000000000000000000000000000000602082015250565b6000610cd5602583610a71565b9150610ce082610c79565b604082019050919050565b60006020820190508181036000830152610d0481610cc8565b9050919050565b7f4e487b7100000000000000000000000000000000000000000000000000000000600052602260045260246000fd5b60006002820490506001821680610d5257607f821691505b60208210811415610d6657610d65610d0b565b5b50919050565b7f4f6e6c79206372612068617320726967687420746f2076657269667900000000600082015250565b6000610da2601c83610a71565b9150610dad82610d6c565b602082019050919050565b60006020820190508181036000830152610dd181610d95565b9050919050565b7f4f6e6c79206372612068617320726967687420746f20756e7665726966790000600082015250565b6000610e0e601e83610a71565b9150610e1982610dd8565b602082019050919050565b60006020820190508181036000830152610e3d81610e01565b905091905056fea2646970667358221220b377382f0952c15d27b3329e883bb5409ecec2812c785484dc38b1d33a9edaae64736f6c634300080a0033",
  "immutableReferences": {},
  "source": "pragma solidity >=0.4.22 <0.9.0;\n\ncontract Verification {\n    address public cra;\n    \n    struct User {\n      bool isVerified;\n      string userInfo;\n    }\n    mapping(address => User) public users;\n\n  constructor() {\n    cra = msg.sender;\n\n    users[msg.sender].isVerified = true;\n    users[msg.sender].userInfo = \"cra\";\n  }\n\n  // Retrieving the target's verification status\n  function getIsVerified(address target) public view returns (bool) {\n    return users[target].isVerified;\n  }\n\n  // Retrieving the target's userInfo\n  function getUserInfo(address target) public view returns (string memory) {\n    require(\n      msg.sender == cra,\n      //getIsVerified(target) == false,\n      \"Only cra has right to getUserInfo\"\n    );\n    require(\n      !users[target].isVerified,\n      \"Can only see info of unverified users\"\n    );\n    return users[target].userInfo;\n  }\n\n  // Unverify target\n  function verify(address target) public {\n    require(\n      msg.sender == cra,\n      \"Only cra has right to verify\"\n    );\n    users[target].isVerified = true;\n  }\n\n  // Unverify target\n  function unverify(address target) public {\n    require(\n      msg.sender == cra,\n      \"Only cra has right to unverify\"\n    );\n    users[target].isVerified = false;\n  }\n\n  // Set user info (not working for some reason, outdated web3 package?)\n  function setData(address target, string calldata personalInfo) public {\n    require(\n      msg.sender == cra,\n      \"Only cra has right to set data\"\n    );\n    users[target].userInfo = personalInfo;\n  }\n\n  function testData(string calldata personalInfo) public {\n    users[msg.sender].userInfo = personalInfo;\n  }\n\n}\n",
  "sourcePath": "/Users/scotthao/Desktop/hack/contracts/Verification.sol",
  "compiler": {
    "name": "solc",
    "version": "0.8.10+commit.fc410830.Emscripten.clang"
  },
  "schemaVersion": "3.4.4",
  "updatedAt": "2023-11-26T11:56:47.482Z",
  "devdoc": {
    "kind": "dev",
    "methods": {},
    "version": 1
  },
  "userdoc": {
    "kind": "user",
    "methods": {},
    "version": 1
  }
}