{
  "contractName": "Verification",
  "abi": [
    {
      "inputs": [],
      "stateMutability": "nonpayable",
      "type": "constructor"
    },
    {
      "inputs": [],
      "name": "cra",
      "outputs": [
        {
          "internalType": "address",
          "name": "",
          "type": "address"
        }
      ],
      "stateMutability": "view",
      "type": "function",
      "constant": true
    },
    {
      "inputs": [
        {
          "internalType": "address",
          "name": "",
          "type": "address"
        }
      ],
      "name": "users",
      "outputs": [
        {
          "internalType": "bool",
          "name": "isVerified",
          "type": "bool"
        },
        {
          "internalType": "string",
          "name": "userInfo",
          "type": "string"
        }
      ],
      "stateMutability": "view",
      "type": "function",
      "constant": true
    },
    {
      "inputs": [
        {
          "internalType": "address",
          "name": "target",
          "type": "address"
        }
      ],
      "name": "getIsVerified",
      "outputs": [
        {
          "internalType": "bool",
          "name": "",
          "type": "bool"
        }
      ],
      "stateMutability": "view",
      "type": "function",
      "constant": true
    },
    {
      "inputs": [
        {
          "internalType": "address",
          "name": "target",
          "type": "address"
        }
      ],
      "name": "getUserInfo",
      "outputs": [
        {
          "internalType": "string",
          "name": "",
          "type": "string"
        }
      ],
      "stateMutability": "view",
      "type": "function",
      "constant": true
    },
    {
      "inputs": [
        {
          "internalType": "address",
          "name": "target",
          "type": "address"
        }
      ],
      "name": "verify",
      "outputs": [],
      "stateMutability": "nonpayable",
      "type": "function"
    },
    {
      "inputs": [
        {
          "internalType": "address",
          "name": "target",
          "type": "address"
        }
      ],
      "name": "unverify",
      "outputs": [],
      "stateMutability": "nonpayable",
      "type": "function"
    }
  ],
  "bytecode": "0x608060405234801561001057600080fd5b50336000806101000a81548173ffffffffffffffffffffffffffffffffffffffff021916908373ffffffffffffffffffffffffffffffffffffffff16021790555060018060003373ffffffffffffffffffffffffffffffffffffffff1673ffffffffffffffffffffffffffffffffffffffff16815260200190815260200160002060000160006101000a81548160ff0219169083151502179055506040518060400160405280600381526020017f6372610000000000000000000000000000000000000000000000000000000000815250600160003373ffffffffffffffffffffffffffffffffffffffff1673ffffffffffffffffffffffffffffffffffffffff168152602001908152602001600020600101908051906020019061013692919061013c565b50610240565b8280546101489061020e565b90600052602060002090601f01602090048101928261016a57600085556101b1565b82601f1061018357805160ff19168380011785556101b1565b828001600101855582156101b1579182015b828111156101b0578251825591602001919060010190610195565b5b5090506101be91906101c2565b5090565b5b808211156101db5760008160009055506001016101c3565b5090565b7f4e487b7100000000000000000000000000000000000000000000000000000000600052602260045260246000fd5b6000600282049050600182168061022657607f821691505b6020821081141561023a576102396101df565b5b50919050565b6109998061024f6000396000f3fe608060405234801561001057600080fd5b50600436106100625760003560e01c80634b953097146100675780636386c1c71461009757806363a9c3d7146100c7578063a87430ba146100e3578063e3f8adcd14610114578063e58f9ce614610130575b600080fd5b610081600480360381019061007c9190610620565b61014e565b60405161008e9190610668565b60405180910390f35b6100b160048036038101906100ac9190610620565b6101a7565b6040516100be919061071c565b60405180910390f35b6100e160048036038101906100dc9190610620565b610309565b005b6100fd60048036038101906100f89190610620565b6103f4565b60405161010b92919061073e565b60405180910390f35b61012e60048036038101906101299190610620565b6104ad565b005b610138610599565b604051610145919061077d565b60405180910390f35b6000600160008373ffffffffffffffffffffffffffffffffffffffff1673ffffffffffffffffffffffffffffffffffffffff16815260200190815260200160002060000160009054906101000a900460ff169050919050565b606060008054906101000a900473ffffffffffffffffffffffffffffffffffffffff1673ffffffffffffffffffffffffffffffffffffffff163373ffffffffffffffffffffffffffffffffffffffff1614610237576040517f08c379a000000000000000000000000000000000000000000000000000000000815260040161022e9061080a565b60405180910390fd5b600160008373ffffffffffffffffffffffffffffffffffffffff1673ffffffffffffffffffffffffffffffffffffffff168152602001908152602001600020600101805461028490610859565b80601f01602080910402602001604051908101604052809291908181526020018280546102b090610859565b80156102fd5780601f106102d2576101008083540402835291602001916102fd565b820191906000526020600020905b8154815290600101906020018083116102e057829003601f168201915b50505050509050919050565b60008054906101000a900473ffffffffffffffffffffffffffffffffffffffff1673ffffffffffffffffffffffffffffffffffffffff163373ffffffffffffffffffffffffffffffffffffffff1614610397576040517f08c379a000000000000000000000000000000000000000000000000000000000815260040161038e906108d7565b60405180910390fd5b60018060008373ffffffffffffffffffffffffffffffffffffffff1673ffffffffffffffffffffffffffffffffffffffff16815260200190815260200160002060000160006101000a81548160ff02191690831515021790555050565b60016020528060005260406000206000915090508060000160009054906101000a900460ff169080600101805461042a90610859565b80601f016020809104026020016040519081016040528092919081815260200182805461045690610859565b80156104a35780601f10610478576101008083540402835291602001916104a3565b820191906000526020600020905b81548152906001019060200180831161048657829003601f168201915b5050505050905082565b60008054906101000a900473ffffffffffffffffffffffffffffffffffffffff1673ffffffffffffffffffffffffffffffffffffffff163373ffffffffffffffffffffffffffffffffffffffff161461053b576040517f08c379a000000000000000000000000000000000000000000000000000000000815260040161053290610943565b60405180910390fd5b6000600160008373ffffffffffffffffffffffffffffffffffffffff1673ffffffffffffffffffffffffffffffffffffffff16815260200190815260200160002060000160006101000a81548160ff02191690831515021790555050565b60008054906101000a900473ffffffffffffffffffffffffffffffffffffffff1681565b600080fd5b600073ffffffffffffffffffffffffffffffffffffffff82169050919050565b60006105ed826105c2565b9050919050565b6105fd816105e2565b811461060857600080fd5b50565b60008135905061061a816105f4565b92915050565b600060208284031215610636576106356105bd565b5b60006106448482850161060b565b91505092915050565b60008115159050919050565b6106628161064d565b82525050565b600060208201905061067d6000830184610659565b92915050565b600081519050919050565b600082825260208201905092915050565b60005b838110156106bd5780820151818401526020810190506106a2565b838111156106cc576000848401525b50505050565b6000601f19601f8301169050919050565b60006106ee82610683565b6106f8818561068e565b935061070881856020860161069f565b610711816106d2565b840191505092915050565b6000602082019050818103600083015261073681846106e3565b905092915050565b60006040820190506107536000830185610659565b818103602083015261076581846106e3565b90509392505050565b610777816105e2565b82525050565b6000602082019050610792600083018461076e565b92915050565b7f4f6e6c79206372612068617320726967687420746f2067657455736572496e6660008201527f6f00000000000000000000000000000000000000000000000000000000000000602082015250565b60006107f460218361068e565b91506107ff82610798565b604082019050919050565b60006020820190508181036000830152610823816107e7565b9050919050565b7f4e487b7100000000000000000000000000000000000000000000000000000000600052602260045260246000fd5b6000600282049050600182168061087157607f821691505b602082108114156108855761088461082a565b5b50919050565b7f4f6e6c79206372612068617320726967687420746f2076657269667900000000600082015250565b60006108c1601c8361068e565b91506108cc8261088b565b602082019050919050565b600060208201905081810360008301526108f0816108b4565b9050919050565b7f4f6e6c79206372612068617320726967687420746f20756e7665726966790000600082015250565b600061092d601e8361068e565b9150610938826108f7565b602082019050919050565b6000602082019050818103600083015261095c81610920565b905091905056fea26469706673582212209adf1b72cd9e5888e8b1bc54b196afbdffce1c8b50eb2c6230b39cd6a7c9092864736f6c634300080a0033",
  "immutableReferences": {},
  "source": "pragma solidity >=0.4.22 <0.9.0;\n\ncontract Verification {\n    address public cra;\n    \n    struct User {\n      bool isVerified;\n      string userInfo;\n    }\n    mapping(address => User) public users;\n    // address[16] public adopters;\n\n  constructor() {\n    cra = msg.sender;\n\n    users[msg.sender].isVerified = true;\n    users[msg.sender].userInfo = \"cra\";\n  }\n\n  // Retrieving the target's verification status\n  function getIsVerified(address target) public view returns (bool) {\n    return users[target].isVerified;\n  }\n\n  // Retrieving the target's userInfo\n  function getUserInfo(address target) public view returns (string memory) {\n    require(\n      msg.sender == cra,\n      //getIsVerified(target) == false,\n      \"Only cra has right to getUserInfo\"\n    );\n    return users[target].userInfo;\n  }\n\n  // Unverify target\n  function verify(address target) public {\n    require(\n      msg.sender == cra,\n      \"Only cra has right to verify\"\n    );\n    users[target].isVerified = true;\n  }\n\n  // Unverify target\n  function unverify(address target) public {\n    require(\n      msg.sender == cra,\n      \"Only cra has right to unverify\"\n    );\n    users[target].isVerified = false;\n  }\n\n/* Adopting a pet\nfunction adopt(uint petId) public returns (uint) {\n  require(petId >= 0 && petId <= 15);\n\n  adopters[petId] = msg.sender;\n\n  return petId;\n}\n*/\n\n}\n",
  "sourcePath": "/Users/scotthao/Desktop/hack/contracts/Verification.sol",
  "compiler": {
    "name": "solc",
    "version": "0.8.10+commit.fc410830.Emscripten.clang"
  },
  "schemaVersion": "3.4.4",
  "updatedAt": "2023-11-25T16:10:12.008Z",
  "networkType": "ethereum",
  "devdoc": {
    "kind": "dev",
    "methods": {},
    "version": 1
  },
  "userdoc": {
    "kind": "user",
    "methods": {},
    "version": 1
  }
}