{
  "contractName": "Verification",
  "abi": [
    {
      "inputs": [],
      "stateMutability": "nonpayable",
      "type": "constructor"
    },
    {
      "inputs": [],
      "name": "cra",
      "outputs": [
        {
          "internalType": "address",
          "name": "",
          "type": "address"
        }
      ],
      "stateMutability": "view",
      "type": "function",
      "constant": true
    },
    {
      "inputs": [
        {
          "internalType": "address",
          "name": "",
          "type": "address"
        }
      ],
      "name": "users",
      "outputs": [
        {
          "internalType": "bool",
          "name": "isVerified",
          "type": "bool"
        },
        {
          "internalType": "string",
          "name": "userInfo",
          "type": "string"
        }
      ],
      "stateMutability": "view",
      "type": "function",
      "constant": true
    },
    {
      "inputs": [
        {
          "internalType": "address",
          "name": "target",
          "type": "address"
        }
      ],
      "name": "getIsVerified",
      "outputs": [
        {
          "internalType": "bool",
          "name": "",
          "type": "bool"
        }
      ],
      "stateMutability": "view",
      "type": "function",
      "constant": true
    },
    {
      "inputs": [
        {
          "internalType": "address",
          "name": "target",
          "type": "address"
        }
      ],
      "name": "getUserInfo",
      "outputs": [
        {
          "internalType": "string",
          "name": "",
          "type": "string"
        }
      ],
      "stateMutability": "view",
      "type": "function",
      "constant": true
    },
    {
      "inputs": [
        {
          "internalType": "address",
          "name": "target",
          "type": "address"
        }
      ],
      "name": "verify",
      "outputs": [],
      "stateMutability": "nonpayable",
      "type": "function"
    },
    {
      "inputs": [
        {
          "internalType": "address",
          "name": "target",
          "type": "address"
        }
      ],
      "name": "unverify",
      "outputs": [],
      "stateMutability": "nonpayable",
      "type": "function"
    },
    {
      "inputs": [
        {
          "internalType": "address",
          "name": "target",
          "type": "address"
        },
        {
          "internalType": "string",
          "name": "personalInfo",
          "type": "string"
        }
      ],
      "name": "setData",
      "outputs": [],
      "stateMutability": "nonpayable",
      "type": "function"
    }
  ],
  "bytecode": "0x60806040523480156200001157600080fd5b50336000806101000a81548173ffffffffffffffffffffffffffffffffffffffff021916908373ffffffffffffffffffffffffffffffffffffffff16021790555060018060003373ffffffffffffffffffffffffffffffffffffffff1673ffffffffffffffffffffffffffffffffffffffff16815260200190815260200160002060000160006101000a81548160ff0219169083151502179055506040518060400160405280600381526020017f6372610000000000000000000000000000000000000000000000000000000000815250600160003373ffffffffffffffffffffffffffffffffffffffff1673ffffffffffffffffffffffffffffffffffffffff16815260200190815260200160002060010190805190602001906200013992919062000140565b5062000255565b8280546200014e906200021f565b90600052602060002090601f016020900481019282620001725760008555620001be565b82601f106200018d57805160ff1916838001178555620001be565b82800160010185558215620001be579182015b82811115620001bd578251825591602001919060010190620001a0565b5b509050620001cd9190620001d1565b5090565b5b80821115620001ec576000816000905550600101620001d2565b5090565b7f4e487b7100000000000000000000000000000000000000000000000000000000600052602260045260246000fd5b600060028204905060018216806200023857607f821691505b602082108114156200024f576200024e620001f0565b5b50919050565b610e8a80620002656000396000f3fe608060405234801561001057600080fd5b506004361061007d5760003560e01c806363a9c3d71161005b57806363a9c3d7146100fe578063a87430ba1461011a578063e3f8adcd1461014b578063e58f9ce6146101675761007d565b80630b51989a146100825780634b9530971461009e5780636386c1c7146100ce575b600080fd5b61009c600480360381019061009791906109c8565b610185565b005b6100b860048036038101906100b39190610a24565b61026e565b6040516100c59190610a6c565b60405180910390f35b6100e860048036038101906100e39190610a24565b6102c7565b6040516100f59190610b0f565b60405180910390f35b61011860048036038101906101139190610a24565b6104b9565b005b610134600480360381019061012f9190610a24565b6105a4565b604051610142929190610b31565b60405180910390f35b61016560048036038101906101609190610a24565b61065d565b005b61016f610749565b60405161017c9190610b70565b60405180910390f35b60008054906101000a900473ffffffffffffffffffffffffffffffffffffffff1673ffffffffffffffffffffffffffffffffffffffff163373ffffffffffffffffffffffffffffffffffffffff1614610213576040517f08c379a000000000000000000000000000000000000000000000000000000000815260040161020a90610bd7565b60405180910390fd5b80600160008473ffffffffffffffffffffffffffffffffffffffff1673ffffffffffffffffffffffffffffffffffffffff168152602001908152602001600020600101908051906020019061026992919061076d565b505050565b6000600160008373ffffffffffffffffffffffffffffffffffffffff1673ffffffffffffffffffffffffffffffffffffffff16815260200190815260200160002060000160009054906101000a900460ff169050919050565b606060008054906101000a900473ffffffffffffffffffffffffffffffffffffffff1673ffffffffffffffffffffffffffffffffffffffff163373ffffffffffffffffffffffffffffffffffffffff1614610357576040517f08c379a000000000000000000000000000000000000000000000000000000000815260040161034e90610c69565b60405180910390fd5b600160008373ffffffffffffffffffffffffffffffffffffffff1673ffffffffffffffffffffffffffffffffffffffff16815260200190815260200160002060000160009054906101000a900460ff16156103e7576040517f08c379a00000000000000000000000000000000000000000000000000000000081526004016103de90610cfb565b60405180910390fd5b600160008373ffffffffffffffffffffffffffffffffffffffff1673ffffffffffffffffffffffffffffffffffffffff168152602001908152602001600020600101805461043490610d4a565b80601f016020809104026020016040519081016040528092919081815260200182805461046090610d4a565b80156104ad5780601f10610482576101008083540402835291602001916104ad565b820191906000526020600020905b81548152906001019060200180831161049057829003601f168201915b50505050509050919050565b60008054906101000a900473ffffffffffffffffffffffffffffffffffffffff1673ffffffffffffffffffffffffffffffffffffffff163373ffffffffffffffffffffffffffffffffffffffff1614610547576040517f08c379a000000000000000000000000000000000000000000000000000000000815260040161053e90610dc8565b60405180910390fd5b60018060008373ffffffffffffffffffffffffffffffffffffffff1673ffffffffffffffffffffffffffffffffffffffff16815260200190815260200160002060000160006101000a81548160ff02191690831515021790555050565b60016020528060005260406000206000915090508060000160009054906101000a900460ff16908060010180546105da90610d4a565b80601f016020809104026020016040519081016040528092919081815260200182805461060690610d4a565b80156106535780601f1061062857610100808354040283529160200191610653565b820191906000526020600020905b81548152906001019060200180831161063657829003601f168201915b5050505050905082565b60008054906101000a900473ffffffffffffffffffffffffffffffffffffffff1673ffffffffffffffffffffffffffffffffffffffff163373ffffffffffffffffffffffffffffffffffffffff16146106eb576040517f08c379a00000000000000000000000000000000000000000000000000000000081526004016106e290610e34565b60405180910390fd5b6000600160008373ffffffffffffffffffffffffffffffffffffffff1673ffffffffffffffffffffffffffffffffffffffff16815260200190815260200160002060000160006101000a81548160ff02191690831515021790555050565b60008054906101000a900473ffffffffffffffffffffffffffffffffffffffff1681565b82805461077990610d4a565b90600052602060002090601f01602090048101928261079b57600085556107e2565b82601f106107b457805160ff19168380011785556107e2565b828001600101855582156107e2579182015b828111156107e15782518255916020019190600101906107c6565b5b5090506107ef91906107f3565b5090565b5b8082111561080c5760008160009055506001016107f4565b5090565b6000604051905090565b600080fd5b600080fd5b600073ffffffffffffffffffffffffffffffffffffffff82169050919050565b600061084f82610824565b9050919050565b61085f81610844565b811461086a57600080fd5b50565b60008135905061087c81610856565b92915050565b600080fd5b600080fd5b6000601f19601f8301169050919050565b7f4e487b7100000000000000000000000000000000000000000000000000000000600052604160045260246000fd5b6108d58261088c565b810181811067ffffffffffffffff821117156108f4576108f361089d565b5b80604052505050565b6000610907610810565b905061091382826108cc565b919050565b600067ffffffffffffffff8211156109335761093261089d565b5b61093c8261088c565b9050602081019050919050565b82818337600083830152505050565b600061096b61096684610918565b6108fd565b90508281526020810184848401111561098757610986610887565b5b610992848285610949565b509392505050565b600082601f8301126109af576109ae610882565b5b81356109bf848260208601610958565b91505092915050565b600080604083850312156109df576109de61081a565b5b60006109ed8582860161086d565b925050602083013567ffffffffffffffff811115610a0e57610a0d61081f565b5b610a1a8582860161099a565b9150509250929050565b600060208284031215610a3a57610a3961081a565b5b6000610a488482850161086d565b91505092915050565b60008115159050919050565b610a6681610a51565b82525050565b6000602082019050610a816000830184610a5d565b92915050565b600081519050919050565b600082825260208201905092915050565b60005b83811015610ac1578082015181840152602081019050610aa6565b83811115610ad0576000848401525b50505050565b6000610ae182610a87565b610aeb8185610a92565b9350610afb818560208601610aa3565b610b048161088c565b840191505092915050565b60006020820190508181036000830152610b298184610ad6565b905092915050565b6000604082019050610b466000830185610a5d565b8181036020830152610b588184610ad6565b90509392505050565b610b6a81610844565b82525050565b6000602082019050610b856000830184610b61565b92915050565b7f4f6e6c79206372612068617320726967687420746f2073657420646174610000600082015250565b6000610bc1601e83610a92565b9150610bcc82610b8b565b602082019050919050565b60006020820190508181036000830152610bf081610bb4565b9050919050565b7f4f6e6c79206372612068617320726967687420746f2067657455736572496e6660008201527f6f00000000000000000000000000000000000000000000000000000000000000602082015250565b6000610c53602183610a92565b9150610c5e82610bf7565b604082019050919050565b60006020820190508181036000830152610c8281610c46565b9050919050565b7f43616e206f6e6c792073656520696e666f206f6620756e76657269666965642060008201527f7573657273000000000000000000000000000000000000000000000000000000602082015250565b6000610ce5602583610a92565b9150610cf082610c89565b604082019050919050565b60006020820190508181036000830152610d1481610cd8565b9050919050565b7f4e487b7100000000000000000000000000000000000000000000000000000000600052602260045260246000fd5b60006002820490506001821680610d6257607f821691505b60208210811415610d7657610d75610d1b565b5b50919050565b7f4f6e6c79206372612068617320726967687420746f2076657269667900000000600082015250565b6000610db2601c83610a92565b9150610dbd82610d7c565b602082019050919050565b60006020820190508181036000830152610de181610da5565b9050919050565b7f4f6e6c79206372612068617320726967687420746f20756e7665726966790000600082015250565b6000610e1e601e83610a92565b9150610e2982610de8565b602082019050919050565b60006020820190508181036000830152610e4d81610e11565b905091905056fea2646970667358221220d2686a7cd3d3a3f480dc7f4b8106bb3feea2755b92a192202d7ccb4debd703cf64736f6c634300080a0033",
  "immutableReferences": {},
  "source": "pragma solidity >=0.4.22 <0.9.0;\n\ncontract Verification {\n    address public cra;\n    \n    struct User {\n      bool isVerified;\n      string userInfo;\n    }\n    mapping(address => User) public users;\n\n  constructor() {\n    cra = msg.sender;\n\n    users[msg.sender].isVerified = true;\n    users[msg.sender].userInfo = \"cra\";\n  }\n\n  // Retrieving the target's verification status\n  function getIsVerified(address target) public view returns (bool) {\n    return users[target].isVerified;\n  }\n\n  // Retrieving the target's userInfo\n  function getUserInfo(address target) public view returns (string memory) {\n    require(\n      msg.sender == cra,\n      //getIsVerified(target) == false,\n      \"Only cra has right to getUserInfo\"\n    );\n    require(\n      !users[target].isVerified,\n      \"Can only see info of unverified users\"\n    );\n    return users[target].userInfo;\n  }\n\n  // Unverify target\n  function verify(address target) public {\n    require(\n      msg.sender == cra,\n      \"Only cra has right to verify\"\n    );\n    users[target].isVerified = true;\n  }\n\n  // Unverify target\n  function unverify(address target) public {\n    require(\n      msg.sender == cra,\n      \"Only cra has right to unverify\"\n    );\n    users[target].isVerified = false;\n  }\n\n  // Set user info \n  function setData(address target,string memory personalInfo) public {\n    require(\n      msg.sender == cra,\n      \"Only cra has right to set data\"\n    );\n    users[target].userInfo = personalInfo;\n  }\n\n}\n",
  "sourcePath": "/Users/carolinehuang/Documents/Hackathons/hackwestern/hackwestern2023/contracts/Verification.sol",
  "compiler": {
    "name": "solc",
    "version": "0.8.10+commit.fc410830.Emscripten.clang"
  },
  "schemaVersion": "3.4.16",
  "updatedAt": "2023-11-26T07:39:56.968Z",
  "networkType": "ethereum",
  "devdoc": {
    "kind": "dev",
    "methods": {},
    "version": 1
  },
  "userdoc": {
    "kind": "user",
    "methods": {},
    "version": 1
  }
}